:1000000014C07DC246C22CC02BC02AC0DAC128C091
:1000100027C026C025C024C023C022C021C020C0C4
:100020001FC01EC01DC049C25CC211241FBECFE547
:10003000D1E0DEBFCDBF10E0A0E6B0E0ECE8F5E037
:1000400002C005900D92A438B107D9F720E0A4E8CA
:10005000B0E001C01D92A439B207E1F764D294C2A6
:10006000CFCF82E088BB089588E088BB089584E004
:1000700088BB089581E088BB089518BA089598B3A5
:100080008FE0892788BB08950F931F93CF93DF9349
:100090000091620010916300C0919200D091930092
:1000A00080918800909189006DE070E046D2A4E6CE
:1000B000B0E020E030E0FC01EE0FFF1FEC59FF4FF5
:1000C0002017310764F4CD91DC91119780819181E3
:1000D0008D939D93D183C0832F5F3F4FF1CFD093FA
:1000E0009300C09392003093910020939000DF9191
:1000F000CF911F910F9108958BB7886D8BBF289A70
:10010000209A8FE087BB85E083BF85B7886085BF75
:10011000089510BE13BE83B7856083BF789412BE66
:1001200089B7826089BF089580918E0090918F0079
:100130008230910509F4A5C02CF40097E1F00197F5
:10014000F1F108958430910509F42AC10CF402C13B
:10015000059709F035C18091820090918300059741
:100160000CF02EC110928F0010928E0010928D0014
:1001700010928C00D4C080918400909185000497E7
:1001800009F01EC181E090E090938F0080938E0073
:1001900010928D0010928C001092870010928600B1
:1001A000109285001092840010928B0010928A00A9
:1001B00082E090E09093630080936200EAC0E09157
:1001C0008A00F0918B00EE0FFF1FEC59FF4F8081EA
:1001D0009181009711F482E00DC08130910511F4F6
:1001E00084E008C08230910511F488E003C00397D1
:1001F00011F481E088BB20918400309185008091CA
:100200006000909161002817390709F0D9C08091EA
:100210008A0090918B002091620030916300215000
:10022000310982179307C4F082E090E090938F0029
:1002300080938E0010928D0010928C001092870097
:1002400010928600109285001092840018BA1092C5
:100250008B0010928A000895019690938B008093F2
:100260008A0081E090E090938F0080938E0010923E
:10027000870010928600109285001092840018BAB0
:10028000089580918200909183008530910509F452
:100290004AC0009711F482E00DC08130910511F43D
:1002A00084E008C08230910511F488E003C0039710
:1002B00011F481E088BB4091840050918500423068
:1002C000510509F07DC0109285001092840018BA83
:1002D00080918A0090918B00FC01EE0FFF1FEC597A
:1002E000FF4F6081718120918200309183006217FD
:1002F000730741F525E030E03093830020938200BE
:1003000020916200309163002150310982179307D8
:1003100079F483E090E090938F0080938E001092A8
:100320008700109286001092850010928400089534
:1003300050938F0040938E00019690938B00809392
:100340008A00089518BA84E090E090938F0080931B
:100350008E00089581E090E090938F0080938E004E
:1003600010928B0010928A0080916200909163003D
:100370000196909363008093620080916000909159
:100380006100823091052CF0019790936100809379
:10039000600085E090E0909383008093820074CEAB
:1003A0008091840090918500069751F485E090E05B
:1003B00090938F0080938E009093830080938200AF
:1003C00008951F920F920FB60F9211242F933F930F
:1003D0004F935F936F937F938F939F93AF93BF934D
:1003E000EF93FF9380918C0090918D006CE070E012
:1003F000A4D0892B89F480918E0090918F008B7FFF
:10040000892B09F43CDE809184009091850001964F
:10041000909385008093840080918C0090918D0052
:100420008C33910571F410928D0010928C008091A4
:1004300086009091870001969093870080938600B4
:1004400005C0019690938D0080938C008091880068
:10045000909189000196893E23E092072CF49093B5
:1004600089008093880004C010928900109288004F
:10047000FF91EF91BF91AF919F918F917F916F917C
:100480005F914F913F912F910F900FBE0F901F9052
:1004900018951F920F920FB60F9211248F939F936E
:1004A00083E090E090938300809382009F918F91EE
:1004B0000F900FBE0F901F9018951F920F920FB6BE
:1004C0000F9211248F939F9381E090E0909383008B
:1004D000809382009F918F910F900FBE0F901F907D
:1004E00018951F920F920FB60F921124109283004D
:1004F000109282000F900FBE0F901F9018951F92C0
:100500000F920FB60F9211248F939F9382E090E089
:1005100090938300809382009F918F910F900FBEE4
:100520000F901F901895E8DDF4DD85E090E0909342
:100530008F0080938E00F8DDFECF97FB072E16F418
:10054000009406D077FD08D00BD007FC05D03EF410
:10055000909581959F4F0895709561957F4F08956F
:10056000AA1BBB1B51E107C0AA1FBB1FA617B707D9
:1005700010F0A61BB70B881F991F5A95A9F78095F5
:0C0580009095BC01CD010895F894FFCFC8
:10058C000A00040002000100000001000300020048
:10059C000000020001000000030002000100000046
:0405AC000100050045
:00000001FF
