:020000040000FA
:1000000000000228CD30FE000330FF0080300000E9
:1000100000007F230000000083120000A1007F0881
:10002000A000CF30A2000330A300831200002008FC
:10003000A4002108A500FF30A007031CA103250888
:10004000240403199A2804302207A400A501A50D51
:100050002308A5072408FE002508FF0080300000C3
:1000600000007F230000000083120000A7007F082B
:10007000A6002208FE002308FF00803000000000D8
:100080007F230000000083120000A900A5007F0864
:10009000A400A80002302207A400A501A50D230892
:1000A000A5072408FE002508FF008030000000009E
:1000B0007F230000000083120000A500AB007F0832
:1000C000AA00A400831200002608AA002708AB009B
:1000D000FF30A607031CA7032B082A040319932843
:1000E0002808FE002908FF008030000000006C2373
:1000F0000000000083120000AA00240883120313EA
:100100008400831383120000251883172A088312A2
:100110000313800083120000A80A0319A90AA40A85
:100120000319A50A6228063083120000A2070318EB
:10013000A30A1528000000002129080083163D08A5
:100140008316A10083163E088316A00003108316B1
:100150003E0C8316A20083163D0C8316A3000310E9
:10016000A20CA30C2308A1062208A00603108316E4
:100170003E0C8316A20083163D0C8316A3000310C9
:10018000A20CA30C0310A20CA30C2308A1062208A6
:10019000A00683163D0E0F398316A30083163E0E6C
:1001A0008316A200F039A304A2060310A20CA30C2C
:1001B0002308A1062208A00683163D0D3E0D8316D6
:1001C000A300A201A20D2308A1062208A0068316FF
:1001D0003E0E0F398316A300A2010310A20CA30C3C
:1001E0002308A1062208A0060130A105A0010310E2
:1001F00083163E0C8316A20083163D0CBD008316A9
:10020000A300210CA501A50C250822048316BE001D
:10021000831201088316A100A00121088316BD06E0
:100220000030BE066430FD000030FE003D08FF00D7
:100230003E08AB228316A0007F08A100FF00200823
:1002400008000830831685009F010730831299004B
:10025000D73083168100492483125408013A031DC4
:10026000772983128519772983125508031D3F29A1
:100270000130D5001E30FF0000300B2477290A30F2
:1002800083125602031871299E208316AF007F083F
:10029000AE00FF002F08A0238316B0003008031D16
:1002A0004429831256088316B0008312D60A831697
:1002B00030082C3EB00000300318013EB1002E087B
:1002C000B200300883128400831383163118831719
:1002D00032088312800083162E08FF002F084F2259
:1002E0007729F3238312D60101308312D5008316B8
:1002F000AE018312851D7E298316AE0A83162E0851
:100300008312D4000A30FF0000300B242C2908008F
:1003100083120000B7007F08B6007E08B9007D0890
:10032000B8000314B71F0310BA01BA0D3A08031935
:10033000A1293609BB003709BC00BB0A0319BC0A56
:10034000A729831200003608BB003708BC008312BF
:1003500000003B08B6003C08B7000314B91F0310A7
:10036000BB01BB0D3B080319BD293809BC00390985
:10037000BD00BC0A0319BD0AC32983120000380856
:10038000BC003908BD00831200003C08B800FD0025
:100390003D08B900FE003608FF00370800000000E5
:1003A00032230000000083120000B7007F08B6006F
:1003B0003B08BA063A080319E8293609BA00370992
:1003C000B800BA0A0319B80A3A08FF003808ED293C
:1003D000831200003608FF0037080800831200006F
:1003E000C7007F08C6007E08C9007D08C800031446
:1003F000C71F0310CA01CA0D4A080319072A460974
:10040000CB004709CC00CB0A0319CC0A0D2A831272
:1004100000004608CB004708CC00831200004B08C0
:10042000C6004C08C7000314C91F0310031C202A70
:100430004809CB004909CC00CB0A0319CC0A262A6B
:10044000831200004808CB004908CC00831200004A
:100450004B08C800FD004C08C900FE004608FF001C
:10046000470800000000AB220000000083120000DB
:10047000C7007F08C6004A080319492A4609CA006E
:100480004709C800CA0A0319C80A4A08FF004808F1
:100490004E2A831200004608FF0047080800831612
:1004A000AA007F08A900C0308316B300F930B40059
:1004B000A430B500B030B6009930B7009230B80023
:1004C0008230B900F830BA008030BB009030BC00F8
:1004D0000A30FD000030FE0083162908FF002A08BC
:1004E00088218316AC007F08AB000A30FD00003085
:1004F000FE002908FF002A08EE218316AA007F08C3
:10050000A9002B08B33EAB002C0803182C0F003EAB
:10051000AC002B0883128400831383162C188317D6
:1005200083120008F822402483162908B33EA9004C
:100530002A0803182A0F003EAA0029088312840003
:10054000831383162A188317831200088316AB00BF
:10055000F8224024080083120000CE007F08CD005E
:100560007E08D0007D08CF00D101D20183120000A7
:1005700050088039031D0130D3005308031DD72ACA
:100580000310CF0DD00D50084E02031DC92A4F088D
:100590004D020318D12A031083120000D00CCF0C97
:1005A000D72A83120000D20A5208D100B62A831239
:1005B000000050084E02031DDF2A4F084D02031CA5
:1005C000E92A831200004F08CD025008031C500F87
:1005D000CE02031083120000D00CCF0C5108D200C1
:1005E000D1035208031DD72A4D08FF004E0808000A
:1005F0008316A500A401A60183162608803E803E2E
:10060000031D042B083024020318312B8316240801
:10061000A700073CA7002508A8002708003C0319ED
:10062000162B8316A80C013E031C112B8316280CD5
:1006300003181C2B83120510031C202B8312051496
:10064000831285140A30FF000030222483128510A3
:100650000A30FF00003022248316A40A0319A60AD8
:10066000FC2A080083120000BF007F08BE007E083D
:10067000C1007D08C000C201C3011030C400831254
:1006800000003F088039031D0130C5000310BE0D76
:10069000BF0D0310C20DC30D4508031D42144108D0
:1006A0004302031D552B40084202031C602B83129A
:1006B00000004008C2024108031C410FC3023E145F
:1006C000831200004403C500C4004508031D3F2BEE
:1006D0003E08FF003F080800003A0319732B803AD8
:1006E00003197A2B00347E08840083137F18831744
:1006F000000808007F088A007E0882000800003A8F
:100700000319872B803A0319912BFF0100347E08CF
:10071000840083137F1883170008FF00840A0008F1
:100720000800000000007A23FD00FE0FFF03FF0A0F
:10073000000000007A23FC007D08FF007C08080010
:100740008316A1007F08A000A20183125608831619
:1007500022020318CB2B22082C3EA30000300318E2
:10076000013EA500230883128400831383162518F5
:100770008317831200088316A300A501200823060F
:10078000031DC82B21082506031DC82B0130CC2BC7
:100790008316A20AA52B0030080006340034523418
:1007A0000434543400340134003450340434BD343F
:1007B00000340234003453340434553400340134EA
:1007C0000034363404342C3400340A3400345434C5
:1007D000043456340034013400345534043457346E
:1007E0000034013400348316AD01033083162D022A
:1007F00003180A2C6330FF0000304F226430FF00E2
:1008000000300B2449246430FF0000300B24831691
:10081000AD0AF52B08008316A5007F08A4008316F7
:100820002408A6002508A700FF30A407031CA50381
:10083000270826040319212CE830FF000330222466
:100840000F2C08008316A1007F08A0008316200843
:10085000A2002108A300FF30A007031CA103230866
:1008600022040319352C0000262C08000034003423
:1008700000340034003400340034003400340034D8
:10088000831205150A30FF0000302224831205115F
:100890000800FF30F8224024FF30F82240240800EE
:0C08A000E134AC34013400340034003486
:00000001FF
