:100000000C9452010C947A010C947A010C947A01AC
:100010000C947A010C947A010C947A010C947A0174
:100020000C947A010C947A010C947A010C947A0164
:100030000C947A010C947A010C947A010C947A0154
:100040000C94BA060C947A010C9488060C946206FF
:100050000C947A010C947A010C947A010C947A0134
:100060000C947A010C947A01000000000000005FFB
:1000700000000007000700147F147F14242A7F2A41
:10008000122313086462364955225000050300000C
:10009000001C2241000041221C0014083E081408E4
:1000A000083E0808005030000008080808080060F2
:1000B00060000020100804023E5149453E00427F86
:1000C000400042615149462141454B311814127F8D
:1000D0001027454545393C4A494930017109050316
:1000E0003649494936064949291E0036360000007E
:1000F0005636000008142241001414141414004150
:100100002214080201510906324979413E7E11113B
:10011000117E7F494949363E414141227F4141227A
:100120001C7F494949417F090909013E4149497AF2
:100130007F0808087F00417F41002040413F017F48
:10014000081422417F404040407F020C027F7F0420
:1001500008107F3E4141413E7F090909063E415159
:10016000215E7F09192946464949493101017F012C
:10017000013F4040403F1F2040201F3F4038403F4C
:100180006314081463070870080761514945430068
:100190007F41410002040810200041417F00040219
:1001A0000102044040404040000102040020545439
:1001B00054787F48444438384444442038444448C0
:1001C0007F3854545418087E0901020C5252523E92
:1001D0007F0804047800447D40002040443D007FB7
:1001E0001028440000417F40007C041804787C08FB
:1001F00004047838444444387C1414140808141453
:10020000187C7C080404084854545420043F44409B
:10021000203C4040207C1C2040201C3C4030403C86
:1002200044281028440C5050503C4464544C440022
:100230000836410000007F00000041360800100829
:100240000810080000000000000000002400270043
:100250002A0000000000250028002B0000000000FC
:1002600023002600290004040404040404040202F8
:100270000202020203030303030301020408102025
:100280004080010204081020010204081020000030
:100290000008000201000003040700000000000045
:1002A0000000040711241FBECFEFD8E0DEBFCDBF92
:1002B00011E0A0E0B1E0E2E4FAE102C005900D92A5
:1002C000A237B107D9F722E0A2E7B1E001C01D9241
:1002D000A637B207E1F711E0C2E5D1E004C02197EB
:1002E000FE010E94190DC135D107C9F70E944307CD
:1002F0000C941F0D0C940000AF92BF92CF92DF922E
:10030000EF92FF920F931F93CF93DF936C017B01CA
:100310008B01040F151FEB015E01AE18BF08C0175B
:10032000D10759F06991D601ED91FC910190F081CE
:10033000E02DC6010995892B79F7C501DF91CF9191
:100340001F910F91FF90EF90DF90CF90BF90AF90F3
:100350000895FC01538D448D252F30E0842F90E0CB
:10036000821B930B541710F0CF96089501970895B0
:10037000FC01918D828D981761F0A28DAE0FBF2F79
:10038000B11D5D968C91928D9F5F9F73928F90E0CF
:1003900008958FEF9FEF0895FC01918D828D98173E
:1003A00031F0828DE80FF11D858D90E008958FEF7B
:1003B0009FEF0895FC01918D228D892F90E0805C44
:1003C0009F4F821B91098F73992708958BE891E0C5
:1003D0000E94DA0121E0892B09F420E0822F0895A0
:1003E00080E090E0892B29F00E94E60181110C94B5
:1003F00000000895FC01A48DA80FB92FB11DA35AC8
:10040000BF4F2C91848D90E001968F739927848F34
:10041000A689B7892C93A089B1898C918370806457
:100420008C93938D848D981306C00288F389E02DF8
:1004300080818F7D80830895EF92FF920F931F93A9
:10044000CF93DF93EC0181E0888F9B8D8C8D981387
:100450001AC0E889F989808185FF15C09FB7F89493
:10046000EE89FF896083E889F989808183708064DF
:1004700080839FBF81E090E0DF91CF911F910F912A
:10048000FF90EF900895F62E0B8D10E00F5F1F4F39
:100490000F731127E02E8C8D8E110CC00FB607FC48
:1004A000FACFE889F989808185FFF5CFCE010E94D6
:1004B000FA01F1CFEB8DEC0FFD2FF11DE35AFF4F49
:1004C000F0829FB7F8940B8FEA89FB898081806264
:1004D000CFCFCF93DF93EC01888D8823B9F0AA8921
:1004E000BB89E889F9898C9185FD03C0808186FDEF
:1004F0000DC00FB607FCF7CF8C9185FFF2CF80813E
:1005000085FFEDCFCE010E94FA01E9CFDF91CF91B7
:100510000895833081F028F4813099F08230A9F079
:1005200008958730A9F08830C9F08430B1F4809103
:1005300080008F7D03C0809180008F778093800042
:10054000089584B58F7784BD089584B58F7DFBCFE2
:100550008091B0008F778093B00008958091B000B3
:100560008F7DF9CFCF93DF93282F30E0F901E25749
:10057000FD4F8491F901E658FD4FD491F901EA59F4
:10058000FD4FC491CC23A1F081110E948902EC2F70
:10059000F0E0EE0FFF1FE45AFD4FA591B491EC91EE
:1005A000ED2381E090E009F480E0DF91CF910895A0
:1005B00080E090E0FACF1F93CF93DF93282F30E0B5
:1005C000F901E257FD4F8491F901E658FD4FD491AE
:1005D000F901EA59FD4FC491CC23A9F0162F8111DE
:1005E0000E948902EC2FF0E0EE0FFF1FEE5AFD4F44
:1005F000A591B4918FB7F894EC91111108C0D095E2
:10060000DE23DC938FBFDF91CF911F910895DE2B06
:10061000F8CFCF93DF9390E0FC01E658FD4F249193
:100620008A599D4FFC0184918823D1F090E0880F76
:10063000991FFC01E85BFD4FA591B491FC01EE5AB6
:10064000FD4FC591D491623071F49FB7F8943C91FD
:10065000822F809583238C93E8812E2B28839FBF44
:10066000DF91CF9108958FB7F894EC912E2B2C93B6
:100670008FBFF6CF3FB7F8948091770190917801C2
:10068000A0917901B0917A0126B5A89B05C02F3FB2
:1006900019F00196A11DB11D3FBFBA2FA92F982FA8
:1006A0008827BC01CD01620F711D811D911D42E0A3
:1006B000660F771F881F991F4A95D1F708958F926B
:1006C0009F92AF92BF92CF92DF92EF92FF920E94E1
:1006D0003A034B015C0184E6C82ED12CE12CF12CAD
:1006E0000E943A03681979098A099B09683E734098
:1006F00081059105A8F321E0C21AD108E108F108AB
:1007000088EE880E83E0981EA11CB11CC114D10490
:10071000E104F10429F7FF90EF90DF90CF90BF90B4
:10072000AF909F908F900895089590E080E0089595
:10073000CF92DF92EF92FF92CF936B017C01C42F97
:1007400020E030E040EA51E40E94580C61E01816C5
:1007500064F020E030E040EA51ECC701B6010E94AD
:10076000000B682F661F6627661F8C2FCF91FF90A6
:10077000EF90DF90CF900C94DB028E5080648093DA
:100780007C0080917A00806480937A0080917A0066
:1007900086FDFCCF8091780060917900762F682FDC
:1007A000072E000C880B990B0E94A80B20E030E06C
:1007B00040EA50E40E945D0C25EB38EC44ED52E435
:1007C0000E94050B25EC3EE440EC51E40E94930AA4
:1007D00008958F929F92AF92BF92CF92DF92EF9245
:1007E000FF92CF93DF93EC010E94BD0320E030E045
:1007F000A9010E94580C18164CF5CE010E94BD03A9
:100800006B017C01CE010E94BD0320E030E0A90114
:100810000E94580C18163CF5CE010E94BD034B01F6
:100820005C01A5019401C701B6010E94000B87FD80
:1008300017C0C701B601DF91CF91FF90EF90DF9015
:10084000CF90BF90AF909F908F900895CE010E945F
:10085000BD036B017C01F7FAF094F7F8F094D2CF66
:1008600075016401CFCFCE010E94BD034B015C0135
:10087000B7FAB094B7F8B094D4CFFB010190002040
:10088000E9F73197AF01461B570BDC01ED91FC9165
:100890000280F381E02D09948F929F92AF92BF92D4
:1008A000EF92FF920F931F93CF93DF93CDB7DEB7F5
:1008B000A1970FB6F894DEBF0FBECDBF7C01FA0141
:1008C000CB0119A2223008F42AE08E010F5D1F4FE0
:1008D000822E912CB12CA12CBF01A50194010E9464
:1008E000E30CF901CA016A300CF5605DD8016E9322
:1008F0008D01232B242B252B79F790E080E0109796
:1009000021F0BD01C7010E943D04A1960FB6F894E5
:10091000DEBF0FBECDBFDF91CF911F910F91FF9032
:10092000EF90BF90AF909F908F900895695CDECF5D
:100930000C943D042F923F924F925F926F927F9260
:100940008F929F92AF92BF92CF92DF92EF92FF92DF
:100950001F93CF93DF93EC016A017B01722EAB01F1
:100960009601CB01B6010E94CA0C6EE171E08111C3
:1009700026C046015701E894B7F82FEF3FEF4FE745
:100980005FE7C501B4010E94CA0C81110CC02FEFB2
:100990003FEF4FE75FE7C501B4010E94000B62E241
:1009A00071E0181664F02FEF3FEF4FE75FE4C701E7
:1009B000B6010E94580C1816B4F466E271E0CE013C
:1009C000DF91CF911F91FF90EF90DF90CF90BF907C
:1009D000AF909F908F907F906F905F904F903F90DF
:1009E0002F900C943D042FEF3FEF4FE75FECC701D2
:1009F000B6010E94000B87FDE0CF20E030E0A901A6
:100A0000C701B6010E94000B312C212C87FF0DC0BD
:100A1000E881F9810190F081E02D6DE2CE01099528
:100A20001C01F7FAF094F7F8F09410E060E070E041
:100A300080E09FE3711641F020E030E040E251E4B5
:100A40000E94050B1F5FF6CFA70196010E94940A32
:100A50002B013C010E94770B4B015C012AE0BC0199
:100A6000A401CE010E944C047C01E20CF31C112372
:100A7000E1F1C501B4010E94A60B9B01AC01C301C9
:100A8000B2010E94930A4B015C01E881F981019057
:100A9000F081E02D6EE2CE010995E80EF91E1150AD
:100AA00020F120E030E040E251E4C501B4010E94B1
:100AB0005D0C2B013C010E94770B4B01B12CA12C4A
:100AC0002AE0B501A401CE010E944C04E80EF91EF3
:100AD000C501B4010E94A60B9B01AC01C301B20188
:100AE0000E94930A4B015C01DACFC701DF91CF91DD
:100AF0001F91FF90EF90DF90CF90BF90AF909F90AD
:100B00008F907F906F905F904F903F902F900895BF
:100B1000CF93DF93AB01BC0122E08BE891E00E9410
:100B20009A04EC016AE271E08BE891E00E943D04D6
:100B30008C0F9D1FDF91CF910895EF92FF920F933D
:100B40001F93CF93DF93EC01042F8E810E94DB0271
:100B500060E088850E94DB02FC80ED8018E0602F59
:100B6000661F6627661F8E2D0E94DB02000F61E064
:100B70008F2D0E94DB0260E08F2D0E94DB0211505E
:100B800071F761E08885DF91CF911F910F91FF9000
:100B9000EF900C94DB02CF93DF93C8E2D2E01C8687
:100BA00090E06B8529E3629F612D1124669570E0CA
:100BB0006F5F7F4F0E94CF0C8D8740E860E0CE01D1
:100BC0000E949D054D85406460E0CE01DF91CF918C
:100BD0000C949D05CF92DF92EF92FF920F931F939B
:100BE000CF93DF9300D000D01F92CDB7DEB767FD63
:100BF00066C07C01862F90E0603208F44FC0809779
:100C000025E0289FB001299F700D112468597F4F5E
:100C100045E050E0CE0101960E948A0A8E010F5FE6
:100C20001F4F680185E0C80ED11CF80141918F016A
:100C300061E0C7010E949D050C151D05B1F740E05C
:100C400061E0C7010E949D05F701848590E006964A
:100C5000628570E00E94CF0C8487892B79F48585AA
:100C600090E00196638529E3629F612D11246695CA
:100C700070E06F5F7F4F0E94CF0C858781E090E02E
:100C80000F900F900F900F900F90DF91CF911F91C9
:100C90000F91FF90EF90DF90CF900895FC01379671
:100CA000EE0FFF1FEE0DFF1D0081118101151105D3
:100CB00009F0B7CF45E050E068E670E0ABCF90E0D8
:100CC00080E0DECF1F920F920FB60F9211242F9368
:100CD0003F934F935F936F937F938F939F93AF93C4
:100CE000BF93EF93FF938BE891E00E94FA01FF918D
:100CF000EF91BF91AF919F918F917F916F915F9194
:100D00004F913F912F910F900FBE0F901F9018950C
:100D10001F920F920FB60F9211242F938F939F93D0
:100D2000EF93FF93E0919B01F0919C018081E09112
:100D3000A101F091A20182FD1BC090818091A401CC
:100D40008F5F8F732091A501821741F0E091A4017C
:100D5000F0E0E557FE4F958F8093A401FF91EF914E
:100D60009F918F912F910F900FBE0F901F9018950C
:100D70008081F4CF1F920F920FB60F9211242F9300
:100D80003F938F939F93AF93BF9380917301909103
:100D90007401A0917501B09176013091720123E048
:100DA000230F2D3758F50196A11DB11D2093720117
:100DB0008093730190937401A0937501B0937601B1
:100DC0008091770190917801A0917901B0917A0199
:100DD0000196A11DB11D8093770190937801A09396
:100DE0007901B0937A01BF91AF919F918F913F911B
:100DF0002F910F900FBE0F901F90189526E8230F8C
:100E00000296A11DB11DD2CFEBE8F1E01382128250
:100E100088EE93E0A0E0B0E084839583A683B78357
:100E200084E091E09183808385EC90E095878487CE
:100E300084EC90E09787868780EC90E0918B808BA4
:100E400081EC90E0938B828B82EC90E0958B848B8D
:100E500086EC90E0978B868B118E128E138E148EFB
:100E6000E8E2F2E01382128286E191E091838083CE
:100E700083E0848384E0858385E0868386E08783BE
:100E800087E080870895CF93DF93CDB7DEB766976D
:100E90000FB6F894DEBF0FBECDBF789484B58260E4
:100EA00084BD84B5816084BD85B5826085BD85B50E
:100EB000816085BD80916E00816080936E0010928C
:100EC0008100809181008260809381008091810007
:100ED0008160809381008091800081608093800098
:100EE0008091B10084608093B1008091B0008160F6
:100EF0008093B00080917A00846080937A00809122
:100F00007A00826080937A0080917A008160809379
:100F10007A0080917A00806880937A001092C100F4
:100F2000E0919B01F0919C0182E08083E091970128
:100F3000F09198011082E0919901F0919A018FEC63
:100F400080831092A301E0919F01F091A00186E0BF
:100F50008083E0919D01F0919E018081806180837A
:100F6000E0919D01F0919E01808188608083E091F5
:100F70009D01F0919E01808180688083E0919D01B8
:100F8000F0919E0180818F7D808362E088E00E94E5
:100F9000090362E089E00E94090361E08AE00E949F
:100FA000090361E08BE00E94090361E08CE00E948C
:100FB000090361E08DE00E94090384E58093320219
:100FC00080E3809333021092310210923402109227
:100FD0003502E6E3F2E080E4DF011D928A95E9F74D
:100FE00061E080912C020E94090361E080912D0252
:100FF0000E94090361E080912E020E94090361E0D2
:1010000080912F020E94090361E0809130020E94CA
:10101000090361E080912F020E94DB0261E0809170
:1010200030020E94DB0260E080912F020E94DB020E
:101030000E945F0361E080912F020E94DB0241E287
:1010400060E088E292E00E949D0543E160E088E272
:1010500092E00E949D058091310242EC813039F48A
:1010600040EE60E088E292E00E949D0545E060E08D
:1010700088E292E00E949D0540E260E088E292E012
:101080000E949D0549E060E088E292E00E949D0593
:1010900080E00E94CB051A821982809133028695E6
:1010A0008695869590913202899FC00111242981ED
:1010B0003A812817390760F440E061E088E292E065
:1010C0000E949D0589819A8101969A838983E5CF43
:1010D00080E00E94CB0548E060E088E292E00E9458
:1010E0009D054CE060E088E292E00E949D050E9430
:1010F0005F0340E860E088E292E00E949D0540E4E2
:1011000060E088E292E00E949D0500E010E089E046
:101110000E94B2023C0188E00E94B2029E8B8D8B3D
:101120008EE090E00E94BD0369837A838B839C8369
:101130008FE090E00E94BD036D837E838F8398874C
:1011400080E190E00E94BD036B017C0181E190E0B1
:101150000E94BD034B015C01672809F4AEC04DE05D
:1011600050E069817A818B819C810E9498034CE0D8
:1011700050E06D817E818F8198850E9498034BE0BD
:1011800050E0C701B6010E9498034AE050E0C50153
:10119000B4010E94980380E00E94CB056DE271E0EB
:1011A00088E292E00E94980481E00E94CB0569E306
:1011B00071E088E292E00E949804AD89BE89AB2B71
:1011C00061F56DE571E08BE891E00E949804C5013E
:1011D000B4010E94880562E671E08BE891E00E940C
:1011E0009804C701B6010E94880567E671E08BE8A4
:1011F00091E00E9498046D817E818F8198850E9484
:1012000088056CE671E08BE891E00E9498046981A2
:101210007A818B819C810E94880582E00E94CB05A7
:101220006DE571E088E292E00E94980422E0B50149
:10123000A40188E292E00E949A0483E00E94CB0518
:1012400062E671E088E292E00E94980422E0B70131
:10125000A60188E292E00E949A0484E00E94CB05F5
:1012600067E671E088E292E00E94980422E04D81F6
:101270005E816F81788588E292E00E949A0485E021
:101280000E94CB056CE671E088E292E00E9498042F
:1012900022E049815A816B817C8188E292E00E9440
:1012A0009A040115110509F432CF0E94E601882342
:1012B00009F42DCF0E9400002ACF8EE090E00E941A
:1012C000E9036B017C018090870190908801A090D8
:1012D0008901B0908A01A50194010E94580C18164A
:1012E00074F0A7019601C501B4010E94930A20E0A1
:1012F00030E040E85FE30E94580C181644F4C092B6
:101300008701D0928801E0928901F0928A01809150
:10131000870190918801A0918901B0918A01898704
:101320009A87AB87BC8723EF34E045EB5FE3BC01D2
:10133000CD010E94050B69837A838B839C838FE0A8
:1013400090E00E94E9036B017C0180908301909002
:101350008401A0908501B0908601A50194010E94AE
:10136000580C181674F0A7019601C501B4010E942B
:10137000930A20E030E040E85FE30E94580C181622
:1013800044F4C0928301D0928401E0928501F092EE
:1013900086018091830190918401A0918501B09193
:1013A00086018D879E87AF87B88B23EF34E045EBAE
:1013B0005FE3BC01CD010E94050B6D837E838F83AB
:1013C000988780E190E00E94E9036B017C018090A6
:1013D0007F0190908001A0908101B0908201A501D1
:1013E00094010E94580C181674F0A7019601C501CB
:1013F000B4010E94930A20E030E040E85FE30E94DD
:10140000580C181644F4C0927F01D0928001E092EB
:101410008101F092820180917F0190918001A091E1
:101420008101B0918201898B9A8BAB8BBC8B23EFAE
:1014300034E045EB5FE3BC01CD010E94050B6B017D
:101440007C0181E190E00E94E9034B015C01409046
:101450007B0150907C0160907D0170907E01A30122
:1014600092010E94580C181674F0A5019401C30152
:10147000B2010E94930A20E030E040E85FE30E945E
:10148000580C181644F480927B0190927C01A09233
:101490007D01B0927E0140907B0150907C01609074
:1014A0007D0170907E0123EF34E045EB5FE3C301E3
:1014B000B2010E94050B4B015C014DE050E06985D3
:1014C0007A858B859C850E9498034CE050E06D8561
:1014D0007E858F8598890E9498034BE050E069894A
:1014E0007A898B899C890E9498034AE050E0C30165
:1014F000B2010E94980380E00E94CB0565E471E090
:1015000088E292E00E94980481E00E94CB0561E5A8
:1015100071E04FCEFB01DC0102C005900D924150FD
:101520005040D8F708955058BB27AA270E94AB0A0D
:101530000C941E0C0E94100C38F00E94170C20F026
:1015400039F49F3F19F426F40C940D0C0EF4E09539
:10155000E7FB0C94070CE92F0E942F0C58F3BA17E5
:10156000620773078407950720F079F4A6F50C94B9
:10157000510C0EF4E0950B2EBA2FA02D0B01B901E2
:1015800090010C01CA01A0011124FF27591B99F0F9
:10159000593F50F4503E68F11A16F040A22F232F05
:1015A000342F4427585FF3CF469537952795A79555
:1015B000F0405395C9F77EF41F16BA0B620B730BFC
:1015C000840BBAF09150A1F0FF0FBB1F661F771F6D
:1015D000881FC2F70EC0BA0F621F731F841F48F422
:1015E000879577956795B795F7959E3F08F0B0CFAB
:1015F0009395880F08F09927EE0F97958795089592
:101600000E94E30B08F481E008950E94190B0C94EA
:101610001E0C0E94170C58F00E94100C40F029F488
:101620005F3F29F00C94070C51110C94520C0C9450
:101630000D0C0E942F0C68F39923B1F3552391F3FD
:10164000951B550BBB27AA2762177307840738F031
:101650009F5F5F4F220F331F441FAA1FA9F335D08E
:101660000E2E3AF0E0E832D091505040E695001C42
:10167000CAF72BD0FE2F29D0660F771F881FBB1FFC
:10168000261737074807AB07B0E809F0BB0B802DDA
:10169000BF01FF2793585F4F3AF09E3F510578F006
:1016A0000C94070C0C94520C5F3FE4F3983ED4F377
:1016B000869577956795B795F7959F5FC9F7880FDA
:1016C000911D9695879597F90895E1E0660F771F2C
:1016D000881FBB1F621773078407BA0720F0621BBD
:1016E000730B840BBA0BEE1F88F7E09508950E94E8
:1016F000370C88F09F5798F0B92F9927B751B0F061
:10170000E1F0660F771F881F991F1AF0BA95C9F785
:1017100014C0B13091F00E94510CB1E008950C94C6
:10172000510C672F782F8827B85F39F0B93FCCF379
:10173000869577956795B395D9F73EF49095809502
:10174000709561957F4F8F4F9F4F0895E89409C022
:1017500097FB3EF490958095709561957F4F8F4FE4
:101760009F4F9923A9F0F92F96E9BB279395F695FA
:10177000879577956795B795F111F8CFFAF4BB0F78
:1017800011F460FF1BC06F5F7F4F8F4F9F4F16C0DC
:10179000882311F096E911C0772321F09EE8872F66
:1017A000762F05C0662371F096E8862F70E060E022
:1017B0002AF09A95660F771F881FDAF7880F96959B
:1017C000879597F90895990F0008550FAA0BE0E83F
:1017D000FEEF16161706E807F907C0F012161306F3
:1017E000E407F50798F0621B730B840B950B39F433
:1017F0000A2661F0232B242B252B21F408950A2699
:1018000009F4A140A6958FEF811D811D089597F9D8
:101810009F6780E870E060E008959FEF80EC089596
:1018200000240A94161617061806090608950024BF
:101830000A9412161306140605060895092E039439
:10184000000C11F4882352F0BB0F40F4BF2B11F4AD
:1018500060FF04C06F5F7F4F8F4F9F4F089557FD0C
:101860009058440F551F59F05F3F71F04795880F0E
:1018700097FB991F61F09F3F79F0879508951216A5
:1018800013061406551FF2CF4695F1DF08C0161651
:1018900017061806991FF1CF869571056105089402
:1018A0000895E894BB2766277727CB0197F9089519
:1018B0000E94E30B08F48FEF08950E94700C0C94C3
:1018C0001E0C0E94100C38F00E94170C20F095237B
:1018D00011F00C94070C0C940D0C11240C94520C68
:1018E0000E942F0C70F3959FC1F3950F50E0551F88
:1018F000629FF001729FBB27F00DB11D639FAA2765
:10190000F00DB11DAA1F649F6627B00DA11D661FB3
:10191000829F2227B00DA11D621F739FB00DA11DD4
:10192000621F839FA00D611D221F749F3327A00D8E
:10193000611D231F849F600D211D822F762F6A2F2A
:1019400011249F5750409AF0F1F088234AF0EE0F8F
:10195000FF1FBB1F661F771F881F91505040A9F7BC
:101960009E3F510580F00C94070C0C94520C5F3F85
:10197000E4F3983ED4F3869577956795B795F795F8
:10198000E7959F5FC1F7FE2B880F911D9695879570
:1019900097F908950E94E30B880B990B089597FB24
:1019A000072E16F4009407D077FD09D00E94050D8C
:1019B00007FC05D03EF4909581959F4F0895709552
:1019C00061957F4F0895A1E21A2EAA1BBB1BFD0152
:1019D0000DC0AA1FBB1FEE1FFF1FA217B307E4070E
:1019E000F50720F0A21BB30BE40BF50B661F771F66
:1019F000881F991F1A9469F7609570958095909546
:101A00009B01AC01BD01CF010895AA1BBB1B51E195
:101A100007C0AA1FBB1FA617B70710F0A61BB70B5E
:101A2000881F991F5A95A9F780959095BC01CD0103
:101A30000895EE0FFF1F0590F491E02D0994F8949E
:021A4000FFCFD6
:101A4200000000001C027C01A9016902DA01B80150
:101A5200CC0100000000EA057C01950394036E614D
:101A62006E00696E66006F7666000D0A00444320C0
:101A7200566F6C7461676573002D2D2D2D2D562DBB
:101A82002D2D2D2D00414320566F6C7461676573B7
:101A9200002D2D2D2D726D732D2D2D2D0056313AC9
:101AA200200056323A200056333A200056343A206B
:021AB200000032
:00000001FF
