:1000000014C01BC01AC019C018C017C016C015C034
:1000100014C013C012C011C010C00FC00EC00DC05C
:100020000CC00BC00AC009C008C011241FBECFE518
:10003000D1E0DEBFCDBF02D076C0E2CF8A9A8AB3CC
:1000400083608ABB81B3886381BB87B3886387BBC6
:1000500087B3876087BB89988898BE98BF98919A24
:10006000909AC69AC79A92988BB38C7F8BBB82B3B7
:10007000877C82BB88B3877C88BB88B3887F88BB3A
:10008000929A2FE78AE196E0215080409040E1F774
:1000900000C0000092982FEB87E299E02150804049
:1000A0009040E1F700C00000949A2FE78AE196E0C3
:1000B000215080409040E1F700C0000094982FEB61
:1000C00087E299E0215080409040E1F700C00000B5
:1000D000C59A2FE78AE196E0215080409040E1F7F1
:1000E00000C00000C5982FEB87E299E021508040C6
:1000F0009040E1F700C00000C09AC19A2FE78AE162
:1001000096E0215080409040E1F700C00000C09888
:10011000C1982FEB87E299E0215080409040E1F7B1
:0A01200000C00000ADCFF894FFCF3F
:00000001FF
